:1000000071C0000090C000008EC000008CC00000D5
:100010008AC0000077C1000050C1000084C0000009
:1000200082C0000080C000007EC000007CC00000D4
:100030007AC0000078C0000076C0000074C00000E4
:1000400072C0000070C000006EC000006CC00000F4
:100050006AC0000068C0000066C0000064C0000004
:1000600062C0000060C000005EC000005CC0000014
:100070005AC0000058C0000056C0000054C0000024
:1000800052C0000050C000004EC000004CC0000034
:100090004AC0000048C0000046C0000044C0000044
:1000A00042C0000040C000003EC000003CC0000054
:1000B0003AC0000038C0000036C0000034C0000064
:1000C00032C0000030C000002EC00000EEC10000B1
:1000D0002AC0000028C0000026C0000024C0000084
:1000E00022C0000011241FBECFEFD1E2DEBFCDBF82
:1000F00000E00CBF12E0A0E0B2E0E8EFF2E200E0C6
:100100000BBF02C007900D92A430B107D9F723E0CE
:10011000A4E0B2E001C01D92A031B207E1F70E9455
:100120003B0E0C947A116CCF3B9A43980895E1ED05
:10013000F0E010821092D00086E08093D2008FE52C
:100140008093D4001092D50088E9808308956F9839
:10015000779A089510BA11BA08956C98749A089510
:100160006D98759A0895EAE7F0E0108210927B008E
:1001700080E280937C0080E880BF86E880830895D9
:10018000883018F098E090937B00877080628093AD
:100190007C00EAE7F0E0808180648083808184FFD6
:1001A000FDCF80917900EAE7F0E090819061908343
:1001B00010927B00089581B18F6081B982B1807FF8
:1001C00082B9EAE0F1E0808188618083EBE0F1E0D0
:1001D0008081886180830895259A2D9A0895269AB2
:1001E0002E9A0895279A2F9A0895E1E8F0E0108258
:1001F0008CEF8093850081E08093840093E090935E
:1002000089008FEF8093880090938B0080938A0001
:1002100090938D0080938C0090938700809386004C
:100220008BEA80938000109282008CE08083089596
:10023000E1E2F1E010828FEF8093250191E090934D
:100240002401109229018093280110922B018093A0
:100250002A0110922D0180932C0189EA80932001BC
:100260008BE08083089573DFA6DF74DF5DDF75DFC9
:1002700077DFB2DFB4DFB6CF089586B1886088B982
:10028000089586B1877F88B9089592B1907F8F7065
:10029000982B92B90895F894EAE6F0E080818260A4
:1002A0008083EC9A78940895F894EAE6F0E08081EF
:1002B00088608083ED9A789408951F920F920FB60C
:1002C0000F9211248F939F93AF93BF938091060257
:1002D00090910702A0910802B09109020196A11D18
:1002E000B11D8093060290930702A0930802B09379
:1002F0000902BF91AF919F918F910F900FBE0F9008
:100300001F9018951F920F920FB60F9211248F9382
:100310009F93AF93BF9380910A0290910B02A0919B
:100320000C02B0910D020196A11DB11D80930A022D
:1003300090930B02A0930C02B0930D02BF91AF916A
:100340009F918F910F900FBE0F901F90189586E090
:100350009CCF089589E099CF089580E096CF0895C5
:1003600085E093CF08958AE090CF089584E08DCF03
:10037000089582E08ACF0895CF92DF92EF92FF92A4
:100380000F931F93BC0180E090E00E94A71028E427
:1003900031EE42E850E40E9413100E947B10AB0142
:1003A00060E070E0109206021092070210920802BC
:1003B0001092090210920A0210920B0210920C0283
:1003C00010920D0291E0E0E0C0900602D09007028A
:1003D000E0900802F090090200910A0210910B02CD
:1003E00020910C0230910D02892F04171507260762
:1003F000370708F48E2F811109C0892FC416D5063E
:10040000E606F70608F48E2F8823F1F21F910F916C
:10041000FF90EF90DF90CF900895BC0180E090E0D6
:100420000E94A71025EE30ED4AEA50E40E94131016
:100430000E947B10AB01BC011092060210920702D1
:100440001092080210920902809106029091070210
:10045000A0910802B0910902481759076A077B0763
:1004600098F77BCF0895CF93DF93EC0170DFCE0137
:10047000D4DFDF91CF910895CF93DF93EC016ADF52
:10048000CE01CBDFDF91CF910895E2E0F1E08081F2
:10049000886080830895F894E6DE49DE64DEA5DE98
:1004A000C7DEF9DE01DF789408951F920F920FB630
:1004B0000F9211240BB60F922F933F934F935F939C
:1004C0006F937F938F939F93AF93BF93EF93FF931C
:1004D000E6EDF0E0808180933D0280913D028083D3
:1004E00080913D02882309F487C080913D028033CA
:1004F00011F410923D0280913D02813319F481E0A4
:1005000080933D0280913D02823319F482E0809312
:100510003D0280913D02833319F483E080933D02D4
:1005200080913D02843319F484E080933D028091F0
:100530003D02863319F486E080933D0280913D02AE
:10054000853319F485E080933D0280913D02873325
:1005500019F487E080933D0280913D02883319F4BD
:1005600088E080933D0280913D02893319F489E04F
:1005700080933D0280913D02813611F480933D02CB
:1005800080913D02823611F480933D0280913D02BC
:10059000833611F480933D0280913D02833611F43D
:1005A00010923D0260913D0270E0809104029091B2
:1005B00005028E960E94641180913D02823659F4A4
:1005C0005CDE2FEF8FEF9CE2215080409040E1F7FE
:1005D00000C0000056DE80910402909105029C014B
:1005E0002F5F3F4F309305022093040220913D027C
:1005F000FC01EE5BFD4F2083FF91EF91BF91AF9126
:100600009F918F917F916F915F914F913F912F912A
:100610000F900BBE0F900FBE0F901F9018952F924A
:100620003F924F925F926F927F928F929F92AF9282
:10063000BF92CF92DF92EF92FF920F931F93CF93CF
:10064000DF93CDB7DEB728970FB6F894DEBF0FBEA5
:10065000CDBFC12CD12C0F2EFEE2AF2EB12CF02D30
:1006600002C068015701C5010E945C11082F10E00B
:1006700075012FEFE21AF20AC7010E945C11813660
:1006800081F7C50102969C838B834601880C991CD7
:10069000CC0CDD1CCC0CDD1CCC0CDD1C8C0C9D1C96
:1006A000800E911E181419040CF456C060C08B8182
:1006B0009C810E945C11082F10E0EB80FC809FEF72
:1006C000E91AF90AC7010E945C11813641F0EFEF87
:1006D000CE1ADE0AFC82EB82402E512EE8CF842D0A
:1006E000952D2B813C812E5F3F4F3C832B833FEF29
:1006F000C31AD30AE1E0CE16D10461F4F301EE0F80
:10070000FF1FE855FD4F1183008393012F5F3F4F7B
:1007100039011BC032E0C316D104B9F4F301EE0F66
:10072000FF1FE855FD4F9C01220F331F880F991FB3
:10073000880F991F880F991F820F931F080F191F89
:1007400011830083C30101963C0192E0A90EB11C04
:10075000A814B9044CF00BC0A12CB12C612C712C45
:10076000412C512C212C312CC22CD32CA0CFC12CAC
:10077000D12C03C06801FC82EB828B819C810E949A
:100780005C11082F10E0EB80FC80EFEFEE1AFE0A00
:10079000C7010E945C11813669F72B813C812E5F75
:1007A0003F4F3C832B834601880C991CCC0CDD1CED
:1007B000CC0CDD1CCC0CDD1C8C0C9D1C800E911E09
:1007C000181419040CF455C05FC08B819C810E94E1
:1007D0005C11082F10E0EB80FC803FEFE31AF30A76
:1007E000C7010E945C11813641F08FEFC81AD80A08
:1007F000FC82EB82402E512EE8CF842D952DEB818B
:10080000FC813296FC83EB83FFEFCF1ADF0A21E0F5
:10081000C216D10459F4F301EE0FFF1FE75DFD4F3F
:1008200011830083C30101963C011CC0E2E0CE1697
:10083000D104C1F4F301EE0FFF1FE75DFD4F9C01F2
:10084000220F331F880F991F880F991F880F991F38
:10085000820F931F080F191F1183008393012F5FCD
:100860003F4F390132E0A30EB11CA814B9044CF07B
:100870000BC0A12CB12C612C712C412C512C212CA2
:10088000312CC22CD32CA1CFC12CD12C03C0680198
:10089000FC82EB828B819C810E945C11082F10E00E
:1008A000EB80FC808FEFE81AF80AC7010E945C1108
:1008B000813669F7EB81FC813296F887EF83C601B8
:1008C000880F991FCC0CDD1CCC0CDD1CCC0CDD1C66
:1008D0008C0D9D1D9C01200F311F3E832D83121610
:1008E00013060CF0A9C01C821B8219821A82A12C4B
:1008F000B12C03C05801F886EF828F8198850E9441
:100900005C11082F10E0EF80F8843FEFE31AF30A40
:10091000C7010E945C11813669F78F819885029624
:1009200098878F83C501880F991F880F991F880F9B
:10093000991F2501440C551C480E591E400E511E8E
:10094000141415040CF458C06CC08F8198850E9453
:100950005C11082F10E0EF80F8849FEFE91AF90A84
:10096000C7010E945C11813639F0EFEFCE1ADE0A22
:10097000F886EF825801E9CFC5012F8138852E5FB7
:100980003F4F38872F833FEFC31AD30AE1E0CE16DB
:10099000D10471F4F101E60DF71DEE0FFF1FE054D5
:1009A000FD4F1183008393012F5F3F4F39011DC01D
:1009B00032E0C316D104C9F4F101E60DF71DEE0FC4
:1009C000FF1FE054FD4F9501220F331F880F991F21
:1009D000880F991F880F991F820F931F080F191FE7
:1009E00011830083C30101963C0192E0890E911CA2
:1009F000841495049CF015C0812C912C612C712CD1
:100A00002B803C80220C331C220C331C220C331C08
:100A10008B819C81880F991F280E391EC980DA802E
:100A200094CFEB81FC813196FC83EB832D813E8159
:100A3000E217F30709F05BCF28960FB6F894DEBFF4
:100A40000FBECDBFDF91CF911F910F91FF90EF901F
:100A5000DF90CF90BF90AF909F908F907F906F90DE
:100A60005F904F903F902F9008956F927F928F925A
:100A70009F92AF92BF92CF92DF92EF92FF920F932D
:100A80001F93CF93DF935C018C010F5F1F4F16956F
:100A90000795C0E0D0E00F2EF8E2CF2EDD24D394EE
:100AA000F02D0F2EFAEF8F2EF02D0F2EFAE2EF2EF3
:100AB000FF24F394F02D99249A940F2EF1EE6F2ECB
:100AC000F02D0F2EF4ED7F2EF02D83E059DB809377
:100AD000150282E055DB8093130281E051DB8093A5
:100AE0001402909113029B3098F02091150230E08F
:100AF00090E0A901481B590B4B3051054CF4821B67
:100B0000930B0B972CF4F6018082F70190821FDC87
:100B1000909115029D3088F0809114028D3028F05C
:100B2000209113022D30B0F476C0209113022D30A5
:100B300008F471C08C3070F0B0C0809114028D3018
:100B400008F469C0209113022D3008F464C09C3071
:100B500008F0ACC02196C017D10760F08AEF8093EF
:100B600028018FEF80932A01F2DB80E590E07BDCA7
:100B7000F4DBA6C0CA15DB0549F0F6018082F70157
:100B80009082E5DB80E590E06EDC9FCF80911302E0
:100B90008A3028F52091140230E0492F50E0B90145
:100BA000641B750B6A30710564F0421B530B4B30AC
:100BB00051050CF076C0F6016082F7017082D9DB36
:100BC00084CF6B3071055CF4421B530B4B305105E5
:100BD00034F0F6016082F7017082C8DB76CF9A307C
:100BE00008F073CF209114022A3008F06ECF8A30BB
:100BF00008F06BCF921730F4F6016082F701708233
:100C0000B8DB63CF291708F060CFF6016082F701E7
:100C10007082ACDB5ACFE0911302EA3020F5682FE6
:100C200070E0292F30E0AB01421B530B4A305105D5
:100C300064F0261B370B2B3031050CF03DC0F6015C
:100C40006082F701708295DB40CF4B3051055CF438
:100C5000261B370B2B30310534F0F6016082F7018B
:100C6000708284DB32CF9C3008F02FCF8C3008F0BC
:100C70002CCFEC3008F029CF981730F4F6016082C1
:100C8000F701708276DB21CF891708F01ECFF601BD
:100C90006082F70170826ADB18CF8D3008F057CF81
:100CA000BACF6B3071050CF494CF99CFE091130259
:100CB000EA3008F4B4CF09CF4B30510574F2D3CFEA
:100CC000DF91CF911F910F91FF90EF90DF90CF9028
:100CD000BF90AF909F908F907F906F9008950F93EB
:100CE0001F93CF93DF93EC018B01D5DB83E048DAD0
:100CF0008093150282E044DA8093130281E040DAA7
:100D0000809314028091010280FD6CC080911002DA
:100D100080FD68C0C230D105F8F401301105E1F45E
:100D20008AEF809328018FEF80932A0119DB86E9EF
:100D300090E022DB83E024DA8093150282E020DA5F
:100D40008093130281E01CDA8093140280911302D5
:100D50008B3080F302DB61C0C130D10501F5011594
:100D6000110509F0C3CF8AEF809328018FEF80939C
:100D70002A01F6DA8CE390E0FFDA83E001DA80936F
:100D8000150282E0FDD98093130281E0F9D98093A6
:100D90001402809113028B3080F3DFDA3EC020977B
:100DA00009F0A4CF0115110509F0A0CF8AEF8093B7
:100DB00028018FEF80932A01D6DA8CE390E0DCDA09
:100DC00083E0DED98093150282E0DAD980931302A2
:100DD00081E0D6D980931402809113028B3080F386
:100DE000BCDA1BC08AEF809328018FEF80932A0121
:100DF000B7DA86E990E0C0DA83E0C2D980931502C1
:100E000082E0BED98093130281E0BAD980931402A4
:100E1000809113028B3080F3A0DADF91CF911F9184
:100E20000F910895AF92BF92CF92DF92EF92FF920F
:100E30000F931F93CF93DF93EC018230910510F055
:100E4000019713DE8AEF809328018FEF80932A01A8
:100E50007EDA81E490E007DB0F2EF8E2EF2EFF242C
:100E6000F394F02D0F2EF1EECF2EF02D0AE211E0CB
:100E70000F2EF4EDDF2EF02D0F2EFAEFAF2EF02D0A
:100E8000BB24BA9483E07CD98093150282E078D9A0
:100E90008093130281E074D98093140284E070D9A6
:100EA000809312028C38F0F4219779F48AEF8093C2
:100EB00028018FEF80932A014ADA84E190E0D3DAA7
:100EC00049DA82E390E0D8DA71C08AEF8093280192
:100ED0008FEF80932A0141DA3DDA84E190E0CCDAA9
:100EE000D4DA64C0809113028B30B8F040911502BF
:100EF00050E02091140230E0BA01621B730B6B309A
:100F000071055CF4241B350B2B30310534F4F701EB
:100F1000A082F801B0821BDAB5CF8A3028F5409163
:100F2000140250E02091150230E0BA01621B730BED
:100F30006A3071055CF0241B350B2B30310594F5BC
:100F4000F701C082F801D08214DA9CCF6B307105B2
:100F50005CF4241B350B2B30310534F0F701C082D3
:100F6000F801D08203DA8ECF909115029C3008F000
:100F700089CF209114022C3008F084CF8C3008F0F7
:100F800081CF921730F4F701C082F801D082F1D9F5
:100F900079CF291708F076CFF701C082F801D08207
:100FA000E5D970CF6B307105CCF2DECFDF91CF91F8
:100FB0001F910F91FF90EF90DF90CF90BF90AF9077
:100FC000089510928D00682F70E080E090E00E94FC
:100FD000A7102BE734E14EEE5FE30E94131020E0F0
:100FE00030E04CE052E4BBD70E947B1060938C0051
:100FF000089583E0809389008FEF8093880008959F
:1010000083E080938B008FEF80938A00089583E0C4
:1010100080938D008FEF80938C000895CF93DF93A2
:101020008BE890E0FC011082CAE8D0E02EE828832B
:10103000FFEF2FEF3CE2F15020403040E1F700C0DD
:101040000000A9E8B0E01C9268E870E020E3FB0132
:101050002083FFEF2FEF3CE2F15020403040E1F7DA
:1010600000C00000FC01108283E28883FFEF2FEFB5
:101070003CE2F15020403040E1F700C000001C92FB
:1010800088E4FB018083FFEF2FE736E1F150204039
:101090003040E1F700C00000ACDFB2DF8AEF8093A0
:1010A00028018FEF80932A0152D984E690E0DBD9A2
:1010B000DF91CF910895CF93C8E78C2F82DF2FEF78
:1010C0008FEB96E0215080409040E1F700C0000097
:1010D000CE51C23E91F780E074DF2FEF8FEF9CE29C
:1010E000215080409040E1F700C00000CF9108956A
:1010F0008CE867DF2FEF8FEF91E121508040904027
:10110000E1F700C0000083DF8AEF809328018FEFB2
:1011100080932A0125D986E990E02ED983E030D842
:101120008093150282E02CD88093130281E028D8A6
:1011300080931402809113028B3080F30ED980913A
:101140000002873511F0853421F487E58093000291
:101150000895833521F0809100028E3419F483E5DF
:101160008093000208958230910510F001977DDC94
:1011700085EF809328018AEF80932A01E8D88CE8D4
:1011800090E071D9EAD897DF81E090E06EDCDFD89B
:1011900088E290E068D9ACCF0895809140029091A8
:1011A000410240910102509102028417950781F497
:1011B000209123023091240260911002709111025B
:1011C000F901E61BF70B3197F1F5215031092AC0DF
:1011D000209123023091240260911002709111023B
:1011E0002617370741F4BC01641B750B613071058C
:1011F00071F5019717C04817590744F06217730734
:1012000014F401960FC02F5F3F4F0CC08230910540
:1012100014F4019607C06217730714F0019702C017
:1012200021503109841B950B90932802809327024B
:101230008091100290911102281B390B30933F02CC
:1012400020933E02089526173707C1F6DCCF4817D2
:101250005907CCF6823091050CF7DBCFCF93DF93A3
:10126000EC018091270290912802C817D90709F054
:1012700061C0DD2384F5809100028E3429F460E0A2
:1012800070E081E090E02BDD80910002833529F44D
:1012900060E070E080E090E022DD80910002853423
:1012A00029F461E070E081E090E019DD87E580934A
:1012B0000002809101029091020220912702309158
:1012C0002802820F931F9093020280930102C2179B
:1012D000D30709F098C01C161D0664F58091000222
:1012E0008E3429F460E070E080E090E0F8DC8091DA
:1012F0000002833529F460E070E081E090E0EFDCEB
:1013000080910002873529F461E070E081E090E08F
:10131000E6DC85E480930002209101023091020214
:101320008091270290912802820F931F90930202CE
:101330008093010280913E0290913F02C817D90725
:1013400009F069C0DD237CF5809100028E3429F418
:1013500061E070E081E090E0C2DC809100028735BE
:1013600029F460E070E081E090E0B9DC8091000257
:10137000853429F460E070E080E090E0B0DC83E543
:1013800080930002809110029091110220913E0200
:1013900030913F02820F931F9093110280931002AD
:1013A000C217D307C1F51C161D06ACF580910002CB
:1013B000833529F461E070E081E090E090DC809179
:1013C0000002873529F460E070E080E090E087DC7F
:1013D00080910002853429F460E070E081E090E0C3
:1013E0007EDC8EE480930002209110023091110285
:1013F00080913E0290913F02820F931F90931102C1
:101400008093100208C080913E0290913F02C8175D
:10141000D90709F499CFDF91CF9108950F931F93C6
:10142000CF93DF93C0912702D0912802209791F5A6
:1014300080913E0290913F02009709F019C261E04D
:1014400070E081E090E04BDC80910002833521F474
:101450008EE48093000211C08E3421F483E58093E2
:1014600000020BC0853421F487E58093000205C09B
:10147000873519F485E48093000285EF8093280175
:101480008AEF80932A010E94AA018CE390E00E94D7
:101490003C0218C300913E0210913F020115110554
:1014A00009F473C2CE012C2FC0FFFCC200FF00C3A1
:1014B0008091010280FF0BC010931E0200931D0259
:1014C000CE01019690933F0280933E020EC0D093CE
:1014D0001E02C0931D02C8010196909328028093BA
:1014E00027028D2FE801022F182FCE01B7DE809141
:1014F000270290912802C817D90791F480911D0204
:1015000090911E0290933F0280933E02D0931E0260
:10151000C0931D020196909328028093270215C064
:1015200080911D0290911E029093280280932702C1
:1015300020913E0230913F0230931E0220931D0203
:10154000019690933F0280933E02CE01DD2324F466
:10155000882799278C1B9D0B88DAC8017FDE809134
:101560002702909128020817190749F480911D025B
:1015700090911E0290933F0280933E0208C080919A
:101580001D0290911E029093280280932702809161
:10159000250290912602009759F0449794F4C801CF
:1015A000992324F488279927801B910B3BDC8AC25E
:1015B000C801992324F488279927801B910B55DAB9
:1015C00081C2C801992324F488279927801B910B95
:1015D000CADD78C28091010280FF0BC010931E0209
:1015E00000931D02CE01019690933F0280933E022C
:1015F0000FC0D0931E02C0931D02C80101969093A4
:101600002802809327029C2F8D2FE801092F182F85
:10161000CE0124DE8091270290912802C817D907B5
:1016200061F480910102909102028C1B9D0B019646
:1016300090930202809301020FC08091100290915A
:10164000110220913E0230913F02821B930B0196C2
:10165000909311028093100281E090E006DA80916D
:10166000270290912802C817D90791F480911D0292
:1016700090911E0290933F0280933E02D0931E02EF
:10168000C0931D020196909328028093270215C0F3
:1016900080911D0290911E02909328028093270250
:1016A00020913E0230913F0230931E0220931D0292
:1016B000019690933F0280933E02C801CFDDC8019E
:1016C000112324F488279927801B910BCED9809170
:1016D0003E0290913F020817190791F480911D0274
:1016E00090911E02909328028093270210931E026D
:1016F00000931D02019690933F0280933E0215C015
:1017000080911D0290911E0290933F0280933E02B1
:10171000209127023091280230931E0220931D024F
:1017200001969093280280932702CE0197DD809145
:101730002702909128020817190749F480911D0289
:1017400090911E02909328028093270208C08091F6
:101750001D0290911E0290933F0280933E02809161
:10176000270290912802C817D90751F480910102ED
:10177000909102020197909302028093010209C0A6
:101780008091100290911102019790931102809321
:101790001002DD236CF4CE01DD2324F48827992781
:1017A0008C1B9D0B0197CC27DD27C81BD90B01C0D3
:1017B00021978091250290912602009759F0449735
:1017C00094F4CE01DD2324F4882799278C1B9D0BEC
:1017D00029DB78C1CE01DD2324F4882799278C1BCF
:1017E0009D0B43D96FC1CE01DD2324F488279927AF
:1017F0008C1B9D0BB8DC66C18091010280FD09C085
:101800008091100280FD05C0902F812F8E01C92F7D
:10181000D82FC80123DDC801992324F488279927EC
:10182000801B910B22D9CE0119DD80912502909168
:101830002602009759F0449794F4CE01DD2324F456
:10184000882799278C1B9D0BEDDA3CC1CE01DD2347
:1018500024F4882799278C1B9D0B07D933C1CE010F
:10186000DD2324F4882799278C1B9D0B7CDC2AC15F
:10187000209101023091020220FF5DC080910002A0
:10188000853439F42F5F3F4F3093020220930102D9
:1018900008C0873531F4215031093093020220937A
:1018A000010281E090E0E1D880913E0290913F02F8
:1018B000D5DC80913E0290913F0299231CF49195D2
:1018C00081959109D2D88091400290914102209156
:1018D000010230910202821B930B909328028093A5
:1018E0002702BCDC8091250290912602009769F0C6
:1018F0004497B4F4809127029091280299231CF414
:101900009195819591098EDADDC0809127029091A1
:10191000280299231CF4919581959109A6D8D2C0EB
:10192000809127029091280299231CF4919581952A
:10193000910919DCC7C092DC8091250290912602A2
:10194000009769F04497B4F480913E0290913F0271
:1019500099231CF491958195910964DAB3C0809123
:101960003E0290913F0299231CF491958195910933
:101970007CD8A8C080913E0290913F0299231CF42C
:10198000919581959109EFDB9DC080911002909116
:10199000110280FF5BC0209100022E3431F40196C9
:1019A000909311028093100207C0233529F4019708
:1019B000909311028093100281E090E056D88091BC
:1019C0002702909128024ADC8091270290912802F8
:1019D00099231CF491958195910947D88091230210
:1019E000909124022091100230911102821B930BDE
:1019F00090933F0280933E0231DC809125029091CA
:101A00002602009769F04497B4F480913E029091C9
:101A10003F0299231CF491958195910903DA52C0F4
:101A200080913E0290913F0299231CF491958195FB
:101A300091091BD847C080913E0290913F029923A3
:101A40001CF49195819591098EDB3CC0CE0106DC9A
:101A50008091250290912602009769F04497BCF48A
:101A6000809127029091280299231CF491958195E9
:101A70009109D8D927C080912702909128029923F3
:101A80001CF49195819591090E9435051BC08091A8
:101A900027029091280299231CF491958195910930
:101AA00062DB10C0C8018C2B9D2B80FF93CDA4CE90
:101AB000802B912B80FF8ECD902F812F8E01C92FEF
:101AC000D82F9ACEDF91CF911F910F91089563E0A7
:101AD00070E0CBD3880F991F01969093A702809353
:101AE000A60284E090E0861B970B880F991F019750
:101AF0009093200280931F0208952091010230915B
:101B0000020286E090E0821B930B90932802809360
:101B10002702209110023091110264E070E0621BF4
:101B2000730B70933F0260933E0278CC089582E07D
:101B300090E0909328028093270210923F02109227
:101B40003E0260E070E06ACC0895880F991FFC01A6
:101B5000E75DFD4F40815181CA01837090789923E0
:101B600024F401978C6F9F6F0196880F991F01963F
:101B70009093A7028093A60227E130E0241B350B47
:101B8000C90199230CF403969595879581609093EC
:101B9000200280931F02089580910E0290910F02FF
:101BA000880F991FD2DF80911F0290912002873009
:101BB00091057CF02091A6023091A70221503109B5
:101BC00030932202209321029093180280931702EF
:101BD0000DC02091A6023091A702309322022093DB
:101BE000210201969093180280931702809121029E
:101BF000909122022091010230910202821B930BEC
:101C00009093280280932702609117027091180226
:101C10002091100230911102621B730B70933F02EE
:101C200060933E02FBCB08958091210290912202A5
:101C30009195819591099093280280932702209194
:101C400017023091180266E070E0621B730B70930C
:101C50003F0260933E02E2CB08958EEF9FEF909398
:101C600028028093270210923F0210923E0260E009
:101C700070E0D4CB08957F928F929F92AF92BF92E3
:101C8000CF92DF92EF92FF920F931F93CF93DF9348
:101C90000E944B0281E995D92FEF4FE756E1215081
:101CA00040405040E1F700C00000B1D9A9E8B0E0E1
:101CB0001C92E8E8F0E08EE280838FEF9FEF21E155
:101CC000815090402040E1F700C000001C9288E461
:101CD00080834FEF5FEF81E1415050408040E1F75A
:101CE00000C0000086D96799FECF0E940F0382E0F2
:101CF00090E00E94350560910E0270910F02CB01B9
:101D0000880F991FFC01EE0FFF1FE75DFD4F20813B
:101D10003181232B09F412C10F2EF4E1BF2EF02DD7
:101D200088248394712C0F2EFAE09F2EF02DA12C85
:101D3000C6E0D0E00F2EFEE1EF2EF12CF02D04E0F6
:101D400010E01092260210922502B69EF001B79E76
:101D5000F00D1124E054FD4F0190F081E02DEE0FC5
:101D6000FF1FE855FD4F208131810196FC01EE0FE8
:101D7000FF1FE75DFD4F408151812417350709F0B2
:101D8000CCC011C0ED91FD91EE0FFF1FE855FD4F46
:101D900060817181260F371F4217530799F4909382
:101DA000260280932502C0902502D09026029FEF44
:101DB000C91AD90AD0922602C0922502C114D104B0
:101DC00059F44DC001968A309105E1F690922502B2
:101DD000A0922602C92CDA2CC60120910E02309165
:101DE0000F02A601481B590BF901EE0FFF1F220F2E
:101DF000331F220F331F220F331FE20FF31FE40F95
:101E0000F51FEE0FFF1FE054FD4F808191815FDED3
:101E10008091A6029091A702909341028093400284
:101E200080911F02909120029093240280932302BC
:101E3000B4D960913E0270913F0280912702909147
:101E40002802ECDAEBD880912502909126020197C6
:101E50009093260280932502009709F0BECF4DDEB5
:101E600066DE1092020210920102D0931102C0931A
:101E70001002F0922602E09225028EDE10922602D7
:101E8000109225020E943D015FEF8FEF9CE25150BE
:101E900080409040E1F700C000000E944101E091C5
:101EA0000E02F0910F02EE0FFF1FEE0FFF1FE35D1A
:101EB000FD4F80819181892B19F0B6DECEDE0DC0F9
:101EC0000E943D012FEF4FEF50EE21504040504017
:101ED000E1F700C000000E944101D0930202C093CC
:101EE0000102109311020093100260910E02709192
:101EF0000F026F5F7F4F70930F0260930E02CB0152
:101F0000880F991FFC01EE0FFF1FE75DFD4F208139
:101F10003181232B09F015CF11C0880F991FFC01C7
:101F2000E75DFD4F40815181B69ED001B79EB00D57
:101F30001124AE53BD4F882D972D24CF80E090E023
:101F4000DF91CF911F910F91FF90EF90DF90CF9095
:101F5000BF90AF909F908F907F9008955058BB276F
:101F6000AA270ED048C139D130F03ED120F031F44B
:101F70009F3F11F41EF42EC10EF4E095E7FB24C13F
:101F8000E92F4AD180F3BA176207730784079507D0
:101F900018F071F49EF562C10EF4E0950B2EBA2F85
:101FA000A02D0B01B90190010C01CA01A00111245F
:101FB000FF27591B99F0593F50F4503E68F11A160B
:101FC000F040A22F232F342F4427585FF3CF46959C
:101FD00037952795A795F0405395C9F77EF41F16BE
:101FE000BA0B620B730B840BBAF09150A1F0FF0F88
:101FF000BB1F661F771F881FC2F70EC0BA0F621F74
:10200000731F841F48F4879577956795B795F79563
:102010009E3F08F0B3CF9395880F08F09927EE0FF5
:102020009795879508950CD0E6C0DED040F0D5D0C6
:1020300030F021F45F3F19F0C7C0511110C1CAC080
:10204000EBD098F39923C9F35523B1F3951B550BA6
:10205000BB27AA2762177307840738F09F5F5F4F7B
:10206000220F331F441FAA1FA9F333D00E2E3AF0BC
:10207000E0E830D091505040E695001CCAF729D0D6
:10208000FE2F27D0660F771F881FBB1F2617370725
:102090004807AB07B0E809F0BB0B802DBF01FF2755
:1020A00093585F4F2AF09E3F510568F08DC0D7C00E
:1020B0005F3FECF3983EDCF3869577956795B7958F
:1020C000F7959F5FC9F7880F911D9695879597F9AA
:1020D0000895E1E0660F771F881FBB1F6217730723
:1020E0008407BA0720F0621B730B840BBA0BEE1F38
:1020F00088F7E095089598D088F09F5790F0B92F11
:102100009927B751A0F0D1F0660F771F881F991F4C
:102110001AF0BA95C9F712C0B13081F09FD0B1E082
:1021200008959CC0672F782F8827B85F39F0B93F92
:10213000CCF3869577956795B395D9F73EF490954E
:102140008095709561957F4F8F4F9F4F0895E894CC
:1021500009C097FB3EF490958095709561957F4FEF
:102160008F4F9F4F9923A9F0F92F96E9BB2793959D
:10217000F695879577956795B795F111F8CFFAF4AD
:10218000BB0F11F460FF1BC06F5F7F4F8F4F9F4FDE
:1021900016C0882311F096E911C0772321F09EE83C
:1021A000872F762F05C0662371F096E8862F70E0A2
:1021B00060E02AF09A95660F771F881FDAF7880F7C
:1021C0009695879597F9089597F99F6780E870E04D
:1021D00060E008959FEF80EC089500240A9416169D
:1021E000170618060906089500240A941216130605
:1021F000140605060895092E0394000C11F4882393
:1022000052F0BB0F40F4BF2B11F460FF04C06F5FAE
:102210007F4F8F4F9F4F089557FD9058440F551F84
:1022200059F05F3F71F04795880F97FB991F61F058
:102230009F3F79F087950895121613061406551FCF
:10224000F2CF4695F1DF08C0161617061806991F3B
:10225000F1CF86957105610508940895E894BB2730
:1022600066277727CB0197F9089597FB072E16F479
:10227000009406D077FD08D00BD007FC05D03EF4C3
:10228000909581959F4F0895709561957F4F089522
:10229000AA1BBB1B51E107C0AA1FBB1FA617B7078C
:1022A00010F0A61BB70B881F991F5A95A9F78095A8
:1022B0009095BC01CD010895F999FECF92BD81BDE5
:1022C000F89A992780B508950196272F02D000C06B
:1022D000262FF999FECF92BD81BDF89A019700B4DF
:1022E000021639F01FBA20BD0FB6F894FA9AF99A7F
:0822F0000FBE0895F894FFCF22
:0422F8004E02000092
:00000001FF
